{"src/contracts/VotingStorage.sol":{"VotingStorage":{"abi":[{"anonymous":false,"inputs":[{"indexed":true,"internalType":"string","name":"campaignId","type":"string"}],"name":"CampaignCreated","type":"event"},{"anonymous":false,"inputs":[{"indexed":true,"internalType":"string","name":"campaignId","type":"string"},{"indexed":true,"internalType":"address","name":"voter","type":"address"},{"indexed":false,"internalType":"uint8","name":"voteOption","type":"uint8"}],"name":"VoteCast","type":"event"},{"inputs":[{"internalType":"string","name":"_campaignId","type":"string"},{"internalType":"uint8","name":"_voteOption","type":"uint8"},{"internalType":"string","name":"_email","type":"string"},{"internalType":"address","name":"_voterAddress","type":"address"},{"internalType":"string","name":"_additionalData","type":"string"}],"name":"castVote","outputs":[],"stateMutability":"nonpayable","type":"function"},{"inputs":[],"name":"getAllCampaignIds","outputs":[{"internalType":"string[]","name":"","type":"string[]"}],"stateMutability":"view","type":"function"},{"inputs":[],"name":"getCampaignSummary","outputs":[{"internalType":"string[]","name":"ids","type":"string[]"},{"internalType":"uint256[]","name":"voteCounts","type":"uint256[]"}],"stateMutability":"view","type":"function"},{"inputs":[{"internalType":"string","name":"_campaignId","type":"string"}],"name":"getVoteCount","outputs":[{"internalType":"uint256","name":"","type":"uint256"}],"stateMutability":"view","type":"function"},{"inputs":[{"internalType":"string","name":"_campaignId","type":"string"}],"name":"getVoteCounts","outputs":[{"internalType":"uint256","name":"inFavor","type":"uint256"},{"internalType":"uint256","name":"against","type":"uint256"}],"stateMutability":"view","type":"function"},{"inputs":[{"internalType":"string","name":"_campaignId","type":"string"},{"internalType":"uint256","name":"_offset","type":"uint256"},{"internalType":"uint256","name":"_limit","type":"uint256"}],"name":"getVotesForCampaign","outputs":[{"internalType":"uint8[]","name":"voteOptions","type":"uint8[]"},{"internalType":"address[]","name":"voters","type":"address[]"},{"internalType":"string[]","name":"emails","type":"string[]"},{"internalType":"string[]","name":"additionalData","type":"string[]"}],"stateMutability":"view","type":"function"}],"evm":{"bytecode":{"linkReferences":{},"object":"60808060405234601557610de5908161001b8239f35b600080fdfe6080604052600436101561001257600080fd5b60003560e01c806304182496146106af578063069953a71461065257806324076f1d1461055d5780636d3a4ff714610458578063a00c96d71461034b5763bc98894e1461005e57600080fd5b346103465760a03660031901126103465760043567ffffffffffffffff81116103465761008f903690600401610817565b6024359060ff82168092036103465760443567ffffffffffffffff8111610346576100be903690600401610817565b6064356001600160a01b0381169291908381036103465760843567ffffffffffffffff8111610346576100f5903690600401610817565b9360018611610301576102fb575033925b60405190610113826107d9565b838252602082019086825260408301938452606083019560018060a01b0316865260808301908152604051958551966020818189019961015481838d610745565b810160008152030190208054600160401b8110156102e55761017b91600182018155610a37565b9490946102cf576101de956004946101976101b3935188610c83565b60ff6001880191511660ff198254161790555160028601610c83565b516003840180546001600160a01b0319166001600160a01b0392909216919091179055519101610c83565b60ff60405160208184516101f3818389610745565b8101600281520301902054161561023d575b61020f9150610d8f565b6040519182527f9e5a0b4c1d9e8f9f7fdabaffae1ca3cc5db95e72d80d155bf45dd72950b037cf60203393a3005b600154600160401b8110156102e55780600161025c9201600155610c68565b9290926102cf576020610287916102768461020f96610c83565b604051809381928651928391610745565b81016002815203019020600160ff198254161790556102a581610d8f565b7f47114a22588e53404a6e9e8510faa484d40bbfba13663d25fe323ddd9ab334ea600080a2610205565b634e487b7160e01b600052600060045260246000fd5b634e487b7160e01b600052604160045260246000fd5b92610106565b60405162461bcd60e51b815260206004820152601a60248201527f566f7465206f7074696f6e206d7573742062652030206f7220310000000000006044820152606490fd5b600080fd5b3461034657600036600319011261034657600154610368816109ca565b906103728161086e565b61037f60405191826107f5565b81815261038b8261086e565b602082019290601f190136843760005b8181106103f8576103be8585856020604051948594604086526040860190610768565b9184830382860152519182815201919060005b8181106103df575050500390f35b82518452859450602093840193909201916001016103d1565b8061043c602061041261040c600195610c68565b506108c0565b8061041d858b610ac6565b52610428848a610ac6565b508160405193828580945193849201610745565b81016000815203019020546104518286610ac6565b520161039b565b346103465760203660031901126103465760043567ffffffffffffffff811161034657610489903690600401610817565b60006104a660206000938160405193828580945193849201610745565b8101858152030190209081546104bb8161086e565b926104c960405194856107f5565b81845284526020808520859185015b83831061053f575050505082905b825182101561052f57600160ff60206104ff8587610ac6565b510151160361051c57610513600191610c59565b915b01906104e6565b9092610529600191610c59565b93610515565b6040908482519182526020820152f35b6005602060019261054f85610a69565b8152019201920191906104d8565b346103465760603660031901126103465760043567ffffffffffffffff81116103465761059161059e913690600401610817565b6044359060243590610ada565b90929160405193849360808501608086528151809152602060a0870192019060005b8181106106365750505084810360208601526020808451928381520193019060005b818110610614575050508161060291856106109594036040870152610768565b908382036060850152610768565b0390f35b82516001600160a01b03168552879650602094850194909201916001016105e2565b825160ff168452889750602093840193909201916001016105c0565b346103465760203660031901126103465760043567ffffffffffffffff81116103465761069c602061068981933690600401610817565b8160405193828580945193849201610745565b8101600081520301902054604051908152f35b34610346576000366003190112610346576001546106cc8161086e565b906106da60405192836107f5565b8082526020820160016000527fb10e2d527612073b26eecdfd717e6a320cf44b4afac2b0732d9fcbe2b7fa0cf66000915b838310610728576040516020808252819061061090820188610768565b600160208192610737856108c0565b81520192019201919061070b565b60005b8381106107585750506000910152565b8181015183820152602001610748565b9080602083519182815201916020808360051b8301019401926000915b83831061079457505050505090565b909192939460208080600193601f1986820301875289516107c081518092818552858086019101610745565b601f01601f191601019701959491909101920190610785565b60a0810190811067ffffffffffffffff8211176102e557604052565b90601f8019910116810190811067ffffffffffffffff8211176102e557604052565b81601f820112156103465780359067ffffffffffffffff82116102e5576040519261084c601f8401601f1916602001856107f5565b8284526020838301011161034657816000926020809301838601378301015290565b67ffffffffffffffff81116102e55760051b60200190565b90600182811c921680156108b6575b60208310146108a057565b634e487b7160e01b600052602260045260246000fd5b91607f1691610895565b90604051918260008254926108d484610886565b808452936001811690811561094257506001146108fb575b506108f9925003836107f5565b565b90506000929192526020600020906000915b8183106109265750509060206108f992820101386108ec565b602091935080600191548385890101520191019091849261090d565b9050602092506108f994915060ff191682840152151560051b820101386108ec565b9061096e8261086e565b61097b60405191826107f5565b828152809261098c601f199161086e565b0190602036910137565b604051906109a56020836107f5565b600080835282815b8281106109b957505050565b8060606020809385010152016109ad565b906109d48261086e565b6109e160405191826107f5565b82815280926109f2601f199161086e565b019060005b828110610a0357505050565b8060606020809385010152016109f7565b91908201809211610a2157565b634e487b7160e01b600052601160045260246000fd5b8054821015610a53576000526005602060002091020190600090565b634e487b7160e01b600052603260045260246000fd5b90604051610a76816107d9565b6080610ac160048395610a88816108c0565b855260ff6001820154166020860152610aa3600282016108c0565b604086015260038101546001600160a01b03166060860152016108c0565b910152565b8051821015610a535760209160051b010190565b90926040519282519360208181860196610af581838a610745565b810160008152030190205480861015610c0a5780610b138388610a14565b11610bf9575b50610b2381610964565b90610b2d81610964565b95610b37826109ca565b95610b41836109ca565b9560005b848110610b5757505050505093929190565b6001906080610b95610b8f6040516020818851610b7581838d610745565b81016000815203019020610b89858a610a14565b90610a37565b50610a69565b60ff602082015116610ba7848b610ac6565b528c610bbf84868060a01b0360608501511692610ac6565b526040810151610bcf848e610ac6565b52610bda838d610ac6565b500151610be7828b610ac6565b52610bf2818a610ac6565b5001610b45565b85810391508111610a215738610b19565b505092505050602090604051610c2083826107f5565b60008152600036813760405192610c3781856107f5565b60008452506000368137610c49610996565b91610c52610996565b9193929190565b6000198114610a215760010190565b600154811015610a5357600160005260206000200190600090565b919091825167ffffffffffffffff81116102e557610ca18254610886565b601f8111610d47575b506020601f8211600114610ce55781929394600092610cda575b50508160011b916000199060031b1c1916179055565b015190503880610cc4565b601f1982169083600052806000209160005b818110610d2f57509583600195969710610d16575b505050811b019055565b015160001960f88460031b161c19169055388080610d0c565b9192602060018192868b015181550194019201610cf7565b826000526020600020601f830160051c81019160208410610d85575b601f0160051c01905b818110610d795750610caa565b60008155600101610d6c565b9091508190610d63565b610da790602060405192828480945193849201610745565b81010390209056fea2646970667358221220713a6f88473d2445eeffc9707195c17777d3f97e117190f6f3754465086b23f064736f6c634300081c0033","opcodes":"PUSH1 0x80 DUP1 PUSH1 0x40 MSTORE CALLVALUE PUSH1 0x15 JUMPI PUSH2 0xDE5 SWAP1 DUP2 PUSH2 0x1B DUP3 CODECOPY RETURN JUMPDEST PUSH1 0x0 DUP1 REVERT INVALID PUSH1 0x80 PUSH1 0x40 MSTORE PUSH1 0x4 CALLDATASIZE LT ISZERO PUSH2 0x12 JUMPI PUSH1 0x0 DUP1 REVERT JUMPDEST PUSH1 0x0 CALLDATALOAD PUSH1 0xE0 SHR DUP1 PUSH4 0x4182496 EQ PUSH2 0x6AF JUMPI DUP1 PUSH4 0x69953A7 EQ PUSH2 0x652 JUMPI DUP1 PUSH4 0x24076F1D EQ PUSH2 0x55D JUMPI DUP1 PUSH4 0x6D3A4FF7 EQ PUSH2 0x458 JUMPI DUP1 PUSH4 0xA00C96D7 EQ PUSH2 0x34B JUMPI PUSH4 0xBC98894E EQ PUSH2 0x5E JUMPI PUSH1 0x0 DUP1 REVERT JUMPDEST CALLVALUE PUSH2 0x346 JUMPI PUSH1 0xA0 CALLDATASIZE PUSH1 0x3 NOT ADD SLT PUSH2 0x346 JUMPI PUSH1 0x4 CALLDATALOAD PUSH8 0xFFFFFFFFFFFFFFFF DUP2 GT PUSH2 0x346 JUMPI PUSH2 0x8F SWAP1 CALLDATASIZE SWAP1 PUSH1 0x4 ADD PUSH2 0x817 JUMP JUMPDEST PUSH1 0x24 CALLDATALOAD SWAP1 PUSH1 0xFF DUP3 AND DUP1 SWAP3 SUB PUSH2 0x346 JUMPI PUSH1 0x44 CALLDATALOAD PUSH8 0xFFFFFFFFFFFFFFFF DUP2 GT PUSH2 0x346 JUMPI PUSH2 0xBE SWAP1 CALLDATASIZE SWAP1 PUSH1 0x4 ADD PUSH2 0x817 JUMP JUMPDEST PUSH1 0x64 CALLDATALOAD PUSH1 0x1 PUSH1 0x1 PUSH1 0xA0 SHL SUB DUP2 AND SWAP3 SWAP2 SWAP1 DUP4 DUP2 SUB PUSH2 0x346 JUMPI PUSH1 0x84 CALLDATALOAD PUSH8 0xFFFFFFFFFFFFFFFF DUP2 GT PUSH2 0x346 JUMPI PUSH2 0xF5 SWAP1 CALLDATASIZE SWAP1 PUSH1 0x4 ADD PUSH2 0x817 JUMP JUMPDEST SWAP4 PUSH1 0x1 DUP7 GT PUSH2 0x301 JUMPI PUSH2 0x2FB JUMPI POP CALLER SWAP3 JUMPDEST PUSH1 0x40 MLOAD SWAP1 PUSH2 0x113 DUP3 PUSH2 0x7D9 JUMP JUMPDEST DUP4 DUP3 MSTORE PUSH1 0x20 DUP3 ADD SWAP1 DUP7 DUP3 MSTORE PUSH1 0x40 DUP4 ADD SWAP4 DUP5 MSTORE PUSH1 0x60 DUP4 ADD SWAP6 PUSH1 0x1 DUP1 PUSH1 0xA0 SHL SUB AND DUP7 MSTORE PUSH1 0x80 DUP4 ADD SWAP1 DUP2 MSTORE PUSH1 0x40 MLOAD SWAP6 DUP6 MLOAD SWAP7 PUSH1 0x20 DUP2 DUP2 DUP10 ADD SWAP10 PUSH2 0x154 DUP2 DUP4 DUP14 PUSH2 0x745 JUMP JUMPDEST DUP2 ADD PUSH1 0x0 DUP2 MSTORE SUB ADD SWAP1 KECCAK256 DUP1 SLOAD PUSH1 0x1 PUSH1 0x40 SHL DUP2 LT ISZERO PUSH2 0x2E5 JUMPI PUSH2 0x17B SWAP2 PUSH1 0x1 DUP3 ADD DUP2 SSTORE PUSH2 0xA37 JUMP JUMPDEST SWAP5 SWAP1 SWAP5 PUSH2 0x2CF JUMPI PUSH2 0x1DE SWAP6 PUSH1 0x4 SWAP5 PUSH2 0x197 PUSH2 0x1B3 SWAP4 MLOAD DUP9 PUSH2 0xC83 JUMP JUMPDEST PUSH1 0xFF PUSH1 0x1 DUP9 ADD SWAP2 MLOAD AND PUSH1 0xFF NOT DUP3 SLOAD AND OR SWAP1 SSTORE MLOAD PUSH1 0x2 DUP7 ADD PUSH2 0xC83 JUMP JUMPDEST MLOAD PUSH1 0x3 DUP5 ADD DUP1 SLOAD PUSH1 0x1 PUSH1 0x1 PUSH1 0xA0 SHL SUB NOT AND PUSH1 0x1 PUSH1 0x1 PUSH1 0xA0 SHL SUB SWAP3 SWAP1 SWAP3 AND SWAP2 SWAP1 SWAP2 OR SWAP1 SSTORE MLOAD SWAP2 ADD PUSH2 0xC83 JUMP JUMPDEST PUSH1 0xFF PUSH1 0x40 MLOAD PUSH1 0x20 DUP2 DUP5 MLOAD PUSH2 0x1F3 DUP2 DUP4 DUP10 PUSH2 0x745 JUMP JUMPDEST DUP2 ADD PUSH1 0x2 DUP2 MSTORE SUB ADD SWAP1 KECCAK256 SLOAD AND ISZERO PUSH2 0x23D JUMPI JUMPDEST PUSH2 0x20F SWAP2 POP PUSH2 0xD8F JUMP JUMPDEST PUSH1 0x40 MLOAD SWAP2 DUP3 MSTORE PUSH32 0x9E5A0B4C1D9E8F9F7FDABAFFAE1CA3CC5DB95E72D80D155BF45DD72950B037CF PUSH1 0x20 CALLER SWAP4 LOG3 STOP JUMPDEST PUSH1 0x1 SLOAD PUSH1 0x1 PUSH1 0x40 SHL DUP2 LT ISZERO PUSH2 0x2E5 JUMPI DUP1 PUSH1 0x1 PUSH2 0x25C SWAP3 ADD PUSH1 0x1 SSTORE PUSH2 0xC68 JUMP JUMPDEST SWAP3 SWAP1 SWAP3 PUSH2 0x2CF JUMPI PUSH1 0x20 PUSH2 0x287 SWAP2 PUSH2 0x276 DUP5 PUSH2 0x20F SWAP7 PUSH2 0xC83 JUMP JUMPDEST PUSH1 0x40 MLOAD DUP1 SWAP4 DUP2 SWAP3 DUP7 MLOAD SWAP3 DUP4 SWAP2 PUSH2 0x745 JUMP JUMPDEST DUP2 ADD PUSH1 0x2 DUP2 MSTORE SUB ADD SWAP1 KECCAK256 PUSH1 0x1 PUSH1 0xFF NOT DUP3 SLOAD AND OR SWAP1 SSTORE PUSH2 0x2A5 DUP2 PUSH2 0xD8F JUMP JUMPDEST PUSH32 0x47114A22588E53404A6E9E8510FAA484D40BBFBA13663D25FE323DDD9AB334EA PUSH1 0x0 DUP1 LOG2 PUSH2 0x205 JUMP JUMPDEST PUSH4 0x4E487B71 PUSH1 0xE0 SHL PUSH1 0x0 MSTORE PUSH1 0x0 PUSH1 0x4 MSTORE PUSH1 0x24 PUSH1 0x0 REVERT JUMPDEST PUSH4 0x4E487B71 PUSH1 0xE0 SHL PUSH1 0x0 MSTORE PUSH1 0x41 PUSH1 0x4 MSTORE PUSH1 0x24 PUSH1 0x0 REVERT JUMPDEST SWAP3 PUSH2 0x106 JUMP JUMPDEST PUSH1 0x40 MLOAD PUSH3 0x461BCD PUSH1 0xE5 SHL DUP2 MSTORE PUSH1 0x20 PUSH1 0x4 DUP3 ADD MSTORE PUSH1 0x1A PUSH1 0x24 DUP3 ADD MSTORE PUSH32 0x566F7465206F7074696F6E206D7573742062652030206F722031000000000000 PUSH1 0x44 DUP3 ADD MSTORE PUSH1 0x64 SWAP1 REVERT JUMPDEST PUSH1 0x0 DUP1 REVERT JUMPDEST CALLVALUE PUSH2 0x346 JUMPI PUSH1 0x0 CALLDATASIZE PUSH1 0x3 NOT ADD SLT PUSH2 0x346 JUMPI PUSH1 0x1 SLOAD PUSH2 0x368 DUP2 PUSH2 0x9CA JUMP JUMPDEST SWAP1 PUSH2 0x372 DUP2 PUSH2 0x86E JUMP JUMPDEST PUSH2 0x37F PUSH1 0x40 MLOAD SWAP2 DUP3 PUSH2 0x7F5 JUMP JUMPDEST DUP2 DUP2 MSTORE PUSH2 0x38B DUP3 PUSH2 0x86E JUMP JUMPDEST PUSH1 0x20 DUP3 ADD SWAP3 SWAP1 PUSH1 0x1F NOT ADD CALLDATASIZE DUP5 CALLDATACOPY PUSH1 0x0 JUMPDEST DUP2 DUP2 LT PUSH2 0x3F8 JUMPI PUSH2 0x3BE DUP6 DUP6 DUP6 PUSH1 0x20 PUSH1 0x40 MLOAD SWAP5 DUP6 SWAP5 PUSH1 0x40 DUP7 MSTORE PUSH1 0x40 DUP7 ADD SWAP1 PUSH2 0x768 JUMP JUMPDEST SWAP2 DUP5 DUP4 SUB DUP3 DUP7 ADD MSTORE MLOAD SWAP2 DUP3 DUP2 MSTORE ADD SWAP2 SWAP1 PUSH1 0x0 JUMPDEST DUP2 DUP2 LT PUSH2 0x3DF JUMPI POP POP POP SUB SWAP1 RETURN JUMPDEST DUP3 MLOAD DUP5 MSTORE DUP6 SWAP5 POP PUSH1 0x20 SWAP4 DUP5 ADD SWAP4 SWAP1 SWAP3 ADD SWAP2 PUSH1 0x1 ADD PUSH2 0x3D1 JUMP JUMPDEST DUP1 PUSH2 0x43C PUSH1 0x20 PUSH2 0x412 PUSH2 0x40C PUSH1 0x1 SWAP6 PUSH2 0xC68 JUMP JUMPDEST POP PUSH2 0x8C0 JUMP JUMPDEST DUP1 PUSH2 0x41D DUP6 DUP12 PUSH2 0xAC6 JUMP JUMPDEST MSTORE PUSH2 0x428 DUP5 DUP11 PUSH2 0xAC6 JUMP JUMPDEST POP DUP2 PUSH1 0x40 MLOAD SWAP4 DUP3 DUP6 DUP1 SWAP5 MLOAD SWAP4 DUP5 SWAP3 ADD PUSH2 0x745 JUMP JUMPDEST DUP2 ADD PUSH1 0x0 DUP2 MSTORE SUB ADD SWAP1 KECCAK256 SLOAD PUSH2 0x451 DUP3 DUP7 PUSH2 0xAC6 JUMP JUMPDEST MSTORE ADD PUSH2 0x39B JUMP JUMPDEST CALLVALUE PUSH2 0x346 JUMPI PUSH1 0x20 CALLDATASIZE PUSH1 0x3 NOT ADD SLT PUSH2 0x346 JUMPI PUSH1 0x4 CALLDATALOAD PUSH8 0xFFFFFFFFFFFFFFFF DUP2 GT PUSH2 0x346 JUMPI PUSH2 0x489 SWAP1 CALLDATASIZE SWAP1 PUSH1 0x4 ADD PUSH2 0x817 JUMP JUMPDEST PUSH1 0x0 PUSH2 0x4A6 PUSH1 0x20 PUSH1 0x0 SWAP4 DUP2 PUSH1 0x40 MLOAD SWAP4 DUP3 DUP6 DUP1 SWAP5 MLOAD SWAP4 DUP5 SWAP3 ADD PUSH2 0x745 JUMP JUMPDEST DUP2 ADD DUP6 DUP2 MSTORE SUB ADD SWAP1 KECCAK256 SWAP1 DUP2 SLOAD PUSH2 0x4BB DUP2 PUSH2 0x86E JUMP JUMPDEST SWAP3 PUSH2 0x4C9 PUSH1 0x40 MLOAD SWAP5 DUP6 PUSH2 0x7F5 JUMP JUMPDEST DUP2 DUP5 MSTORE DUP5 MSTORE PUSH1 0x20 DUP1 DUP6 KECCAK256 DUP6 SWAP2 DUP6 ADD JUMPDEST DUP4 DUP4 LT PUSH2 0x53F JUMPI POP POP POP POP DUP3 SWAP1 JUMPDEST DUP3 MLOAD DUP3 LT ISZERO PUSH2 0x52F JUMPI PUSH1 0x1 PUSH1 0xFF PUSH1 0x20 PUSH2 0x4FF DUP6 DUP8 PUSH2 0xAC6 JUMP JUMPDEST MLOAD ADD MLOAD AND SUB PUSH2 0x51C JUMPI PUSH2 0x513 PUSH1 0x1 SWAP2 PUSH2 0xC59 JUMP JUMPDEST SWAP2 JUMPDEST ADD SWAP1 PUSH2 0x4E6 JUMP JUMPDEST SWAP1 SWAP3 PUSH2 0x529 PUSH1 0x1 SWAP2 PUSH2 0xC59 JUMP JUMPDEST SWAP4 PUSH2 0x515 JUMP JUMPDEST PUSH1 0x40 SWAP1 DUP5 DUP3 MLOAD SWAP2 DUP3 MSTORE PUSH1 0x20 DUP3 ADD MSTORE RETURN JUMPDEST PUSH1 0x5 PUSH1 0x20 PUSH1 0x1 SWAP3 PUSH2 0x54F DUP6 PUSH2 0xA69 JUMP JUMPDEST DUP2 MSTORE ADD SWAP3 ADD SWAP3 ADD SWAP2 SWAP1 PUSH2 0x4D8 JUMP JUMPDEST CALLVALUE PUSH2 0x346 JUMPI PUSH1 0x60 CALLDATASIZE PUSH1 0x3 NOT ADD SLT PUSH2 0x346 JUMPI PUSH1 0x4 CALLDATALOAD PUSH8 0xFFFFFFFFFFFFFFFF DUP2 GT PUSH2 0x346 JUMPI PUSH2 0x591 PUSH2 0x59E SWAP2 CALLDATASIZE SWAP1 PUSH1 0x4 ADD PUSH2 0x817 JUMP JUMPDEST PUSH1 0x44 CALLDATALOAD SWAP1 PUSH1 0x24 CALLDATALOAD SWAP1 PUSH2 0xADA JUMP JUMPDEST SWAP1 SWAP3 SWAP2 PUSH1 0x40 MLOAD SWAP4 DUP5 SWAP4 PUSH1 0x80 DUP6 ADD PUSH1 0x80 DUP7 MSTORE DUP2 MLOAD DUP1 SWAP2 MSTORE PUSH1 0x20 PUSH1 0xA0 DUP8 ADD SWAP3 ADD SWAP1 PUSH1 0x0 JUMPDEST DUP2 DUP2 LT PUSH2 0x636 JUMPI POP POP POP DUP5 DUP2 SUB PUSH1 0x20 DUP7 ADD MSTORE PUSH1 0x20 DUP1 DUP5 MLOAD SWAP3 DUP4 DUP2 MSTORE ADD SWAP4 ADD SWAP1 PUSH1 0x0 JUMPDEST DUP2 DUP2 LT PUSH2 0x614 JUMPI POP POP POP DUP2 PUSH2 0x602 SWAP2 DUP6 PUSH2 0x610 SWAP6 SWAP5 SUB PUSH1 0x40 DUP8 ADD MSTORE PUSH2 0x768 JUMP JUMPDEST SWAP1 DUP4 DUP3 SUB PUSH1 0x60 DUP6 ADD MSTORE PUSH2 0x768 JUMP JUMPDEST SUB SWAP1 RETURN JUMPDEST DUP3 MLOAD PUSH1 0x1 PUSH1 0x1 PUSH1 0xA0 SHL SUB AND DUP6 MSTORE DUP8 SWAP7 POP PUSH1 0x20 SWAP5 DUP6 ADD SWAP5 SWAP1 SWAP3 ADD SWAP2 PUSH1 0x1 ADD PUSH2 0x5E2 JUMP JUMPDEST DUP3 MLOAD PUSH1 0xFF AND DUP5 MSTORE DUP9 SWAP8 POP PUSH1 0x20 SWAP4 DUP5 ADD SWAP4 SWAP1 SWAP3 ADD SWAP2 PUSH1 0x1 ADD PUSH2 0x5C0 JUMP JUMPDEST CALLVALUE PUSH2 0x346 JUMPI PUSH1 0x20 CALLDATASIZE PUSH1 0x3 NOT ADD SLT PUSH2 0x346 JUMPI PUSH1 0x4 CALLDATALOAD PUSH8 0xFFFFFFFFFFFFFFFF DUP2 GT PUSH2 0x346 JUMPI PUSH2 0x69C PUSH1 0x20 PUSH2 0x689 DUP2 SWAP4 CALLDATASIZE SWAP1 PUSH1 0x4 ADD PUSH2 0x817 JUMP JUMPDEST DUP2 PUSH1 0x40 MLOAD SWAP4 DUP3 DUP6 DUP1 SWAP5 MLOAD SWAP4 DUP5 SWAP3 ADD PUSH2 0x745 JUMP JUMPDEST DUP2 ADD PUSH1 0x0 DUP2 MSTORE SUB ADD SWAP1 KECCAK256 SLOAD PUSH1 0x40 MLOAD SWAP1 DUP2 MSTORE RETURN JUMPDEST CALLVALUE PUSH2 0x346 JUMPI PUSH1 0x0 CALLDATASIZE PUSH1 0x3 NOT ADD SLT PUSH2 0x346 JUMPI PUSH1 0x1 SLOAD PUSH2 0x6CC DUP2 PUSH2 0x86E JUMP JUMPDEST SWAP1 PUSH2 0x6DA PUSH1 0x40 MLOAD SWAP3 DUP4 PUSH2 0x7F5 JUMP JUMPDEST DUP1 DUP3 MSTORE PUSH1 0x20 DUP3 ADD PUSH1 0x1 PUSH1 0x0 MSTORE PUSH32 0xB10E2D527612073B26EECDFD717E6A320CF44B4AFAC2B0732D9FCBE2B7FA0CF6 PUSH1 0x0 SWAP2 JUMPDEST DUP4 DUP4 LT PUSH2 0x728 JUMPI PUSH1 0x40 MLOAD PUSH1 0x20 DUP1 DUP3 MSTORE DUP2 SWAP1 PUSH2 0x610 SWAP1 DUP3 ADD DUP9 PUSH2 0x768 JUMP JUMPDEST PUSH1 0x1 PUSH1 0x20 DUP2 SWAP3 PUSH2 0x737 DUP6 PUSH2 0x8C0 JUMP JUMPDEST DUP2 MSTORE ADD SWAP3 ADD SWAP3 ADD SWAP2 SWAP1 PUSH2 0x70B JUMP JUMPDEST PUSH1 0x0 JUMPDEST DUP4 DUP2 LT PUSH2 0x758 JUMPI POP POP PUSH1 0x0 SWAP2 ADD MSTORE JUMP JUMPDEST DUP2 DUP2 ADD MLOAD DUP4 DUP3 ADD MSTORE PUSH1 0x20 ADD PUSH2 0x748 JUMP JUMPDEST SWAP1 DUP1 PUSH1 0x20 DUP4 MLOAD SWAP2 DUP3 DUP2 MSTORE ADD SWAP2 PUSH1 0x20 DUP1 DUP4 PUSH1 0x5 SHL DUP4 ADD ADD SWAP5 ADD SWAP3 PUSH1 0x0 SWAP2 JUMPDEST DUP4 DUP4 LT PUSH2 0x794 JUMPI POP POP POP POP POP SWAP1 JUMP JUMPDEST SWAP1 SWAP2 SWAP3 SWAP4 SWAP5 PUSH1 0x20 DUP1 DUP1 PUSH1 0x1 SWAP4 PUSH1 0x1F NOT DUP7 DUP3 SUB ADD DUP8 MSTORE DUP10 MLOAD PUSH2 0x7C0 DUP2 MLOAD DUP1 SWAP3 DUP2 DUP6 MSTORE DUP6 DUP1 DUP7 ADD SWAP2 ADD PUSH2 0x745 JUMP JUMPDEST PUSH1 0x1F ADD PUSH1 0x1F NOT AND ADD ADD SWAP8 ADD SWAP6 SWAP5 SWAP2 SWAP1 SWAP2 ADD SWAP3 ADD SWAP1 PUSH2 0x785 JUMP JUMPDEST PUSH1 0xA0 DUP2 ADD SWAP1 DUP2 LT PUSH8 0xFFFFFFFFFFFFFFFF DUP3 GT OR PUSH2 0x2E5 JUMPI PUSH1 0x40 MSTORE JUMP JUMPDEST SWAP1 PUSH1 0x1F DUP1 NOT SWAP2 ADD AND DUP2 ADD SWAP1 DUP2 LT PUSH8 0xFFFFFFFFFFFFFFFF DUP3 GT OR PUSH2 0x2E5 JUMPI PUSH1 0x40 MSTORE JUMP JUMPDEST DUP2 PUSH1 0x1F DUP3 ADD SLT ISZERO PUSH2 0x346 JUMPI DUP1 CALLDATALOAD SWAP1 PUSH8 0xFFFFFFFFFFFFFFFF DUP3 GT PUSH2 0x2E5 JUMPI PUSH1 0x40 MLOAD SWAP3 PUSH2 0x84C PUSH1 0x1F DUP5 ADD PUSH1 0x1F NOT AND PUSH1 0x20 ADD DUP6 PUSH2 0x7F5 JUMP JUMPDEST DUP3 DUP5 MSTORE PUSH1 0x20 DUP4 DUP4 ADD ADD GT PUSH2 0x346 JUMPI DUP2 PUSH1 0x0 SWAP3 PUSH1 0x20 DUP1 SWAP4 ADD DUP4 DUP7 ADD CALLDATACOPY DUP4 ADD ADD MSTORE SWAP1 JUMP JUMPDEST PUSH8 0xFFFFFFFFFFFFFFFF DUP2 GT PUSH2 0x2E5 JUMPI PUSH1 0x5 SHL PUSH1 0x20 ADD SWAP1 JUMP JUMPDEST SWAP1 PUSH1 0x1 DUP3 DUP2 SHR SWAP3 AND DUP1 ISZERO PUSH2 0x8B6 JUMPI JUMPDEST PUSH1 0x20 DUP4 LT EQ PUSH2 0x8A0 JUMPI JUMP JUMPDEST PUSH4 0x4E487B71 PUSH1 0xE0 SHL PUSH1 0x0 MSTORE PUSH1 0x22 PUSH1 0x4 MSTORE PUSH1 0x24 PUSH1 0x0 REVERT JUMPDEST SWAP2 PUSH1 0x7F AND SWAP2 PUSH2 0x895 JUMP JUMPDEST SWAP1 PUSH1 0x40 MLOAD SWAP2 DUP3 PUSH1 0x0 DUP3 SLOAD SWAP3 PUSH2 0x8D4 DUP5 PUSH2 0x886 JUMP JUMPDEST DUP1 DUP5 MSTORE SWAP4 PUSH1 0x1 DUP2 AND SWAP1 DUP2 ISZERO PUSH2 0x942 JUMPI POP PUSH1 0x1 EQ PUSH2 0x8FB JUMPI JUMPDEST POP PUSH2 0x8F9 SWAP3 POP SUB DUP4 PUSH2 0x7F5 JUMP JUMPDEST JUMP JUMPDEST SWAP1 POP PUSH1 0x0 SWAP3 SWAP2 SWAP3 MSTORE PUSH1 0x20 PUSH1 0x0 KECCAK256 SWAP1 PUSH1 0x0 SWAP2 JUMPDEST DUP2 DUP4 LT PUSH2 0x926 JUMPI POP POP SWAP1 PUSH1 0x20 PUSH2 0x8F9 SWAP3 DUP3 ADD ADD CODESIZE PUSH2 0x8EC JUMP JUMPDEST PUSH1 0x20 SWAP2 SWAP4 POP DUP1 PUSH1 0x1 SWAP2 SLOAD DUP4 DUP6 DUP10 ADD ADD MSTORE ADD SWAP2 ADD SWAP1 SWAP2 DUP5 SWAP3 PUSH2 0x90D JUMP JUMPDEST SWAP1 POP PUSH1 0x20 SWAP3 POP PUSH2 0x8F9 SWAP5 SWAP2 POP PUSH1 0xFF NOT AND DUP3 DUP5 ADD MSTORE ISZERO ISZERO PUSH1 0x5 SHL DUP3 ADD ADD CODESIZE PUSH2 0x8EC JUMP JUMPDEST SWAP1 PUSH2 0x96E DUP3 PUSH2 0x86E JUMP JUMPDEST PUSH2 0x97B PUSH1 0x40 MLOAD SWAP2 DUP3 PUSH2 0x7F5 JUMP JUMPDEST DUP3 DUP2 MSTORE DUP1 SWAP3 PUSH2 0x98C PUSH1 0x1F NOT SWAP2 PUSH2 0x86E JUMP JUMPDEST ADD SWAP1 PUSH1 0x20 CALLDATASIZE SWAP2 ADD CALLDATACOPY JUMP JUMPDEST PUSH1 0x40 MLOAD SWAP1 PUSH2 0x9A5 PUSH1 0x20 DUP4 PUSH2 0x7F5 JUMP JUMPDEST PUSH1 0x0 DUP1 DUP4 MSTORE DUP3 DUP2 JUMPDEST DUP3 DUP2 LT PUSH2 0x9B9 JUMPI POP POP POP JUMP JUMPDEST DUP1 PUSH1 0x60 PUSH1 0x20 DUP1 SWAP4 DUP6 ADD ADD MSTORE ADD PUSH2 0x9AD JUMP JUMPDEST SWAP1 PUSH2 0x9D4 DUP3 PUSH2 0x86E JUMP JUMPDEST PUSH2 0x9E1 PUSH1 0x40 MLOAD SWAP2 DUP3 PUSH2 0x7F5 JUMP JUMPDEST DUP3 DUP2 MSTORE DUP1 SWAP3 PUSH2 0x9F2 PUSH1 0x1F NOT SWAP2 PUSH2 0x86E JUMP JUMPDEST ADD SWAP1 PUSH1 0x0 JUMPDEST DUP3 DUP2 LT PUSH2 0xA03 JUMPI POP POP POP JUMP JUMPDEST DUP1 PUSH1 0x60 PUSH1 0x20 DUP1 SWAP4 DUP6 ADD ADD MSTORE ADD PUSH2 0x9F7 JUMP JUMPDEST SWAP2 SWAP1 DUP3 ADD DUP1 SWAP3 GT PUSH2 0xA21 JUMPI JUMP JUMPDEST PUSH4 0x4E487B71 PUSH1 0xE0 SHL PUSH1 0x0 MSTORE PUSH1 0x11 PUSH1 0x4 MSTORE PUSH1 0x24 PUSH1 0x0 REVERT JUMPDEST DUP1 SLOAD DUP3 LT ISZERO PUSH2 0xA53 JUMPI PUSH1 0x0 MSTORE PUSH1 0x5 PUSH1 0x20 PUSH1 0x0 KECCAK256 SWAP2 MUL ADD SWAP1 PUSH1 0x0 SWAP1 JUMP JUMPDEST PUSH4 0x4E487B71 PUSH1 0xE0 SHL PUSH1 0x0 MSTORE PUSH1 0x32 PUSH1 0x4 MSTORE PUSH1 0x24 PUSH1 0x0 REVERT JUMPDEST SWAP1 PUSH1 0x40 MLOAD PUSH2 0xA76 DUP2 PUSH2 0x7D9 JUMP JUMPDEST PUSH1 0x80 PUSH2 0xAC1 PUSH1 0x4 DUP4 SWAP6 PUSH2 0xA88 DUP2 PUSH2 0x8C0 JUMP JUMPDEST DUP6 MSTORE PUSH1 0xFF PUSH1 0x1 DUP3 ADD SLOAD AND PUSH1 0x20 DUP7 ADD MSTORE PUSH2 0xAA3 PUSH1 0x2 DUP3 ADD PUSH2 0x8C0 JUMP JUMPDEST PUSH1 0x40 DUP7 ADD MSTORE PUSH1 0x3 DUP2 ADD SLOAD PUSH1 0x1 PUSH1 0x1 PUSH1 0xA0 SHL SUB AND PUSH1 0x60 DUP7 ADD MSTORE ADD PUSH2 0x8C0 JUMP JUMPDEST SWAP2 ADD MSTORE JUMP JUMPDEST DUP1 MLOAD DUP3 LT ISZERO PUSH2 0xA53 JUMPI PUSH1 0x20 SWAP2 PUSH1 0x5 SHL ADD ADD SWAP1 JUMP JUMPDEST SWAP1 SWAP3 PUSH1 0x40 MLOAD SWAP3 DUP3 MLOAD SWAP4 PUSH1 0x20 DUP2 DUP2 DUP7 ADD SWAP7 PUSH2 0xAF5 DUP2 DUP4 DUP11 PUSH2 0x745 JUMP JUMPDEST DUP2 ADD PUSH1 0x0 DUP2 MSTORE SUB ADD SWAP1 KECCAK256 SLOAD DUP1 DUP7 LT ISZERO PUSH2 0xC0A JUMPI DUP1 PUSH2 0xB13 DUP4 DUP9 PUSH2 0xA14 JUMP JUMPDEST GT PUSH2 0xBF9 JUMPI JUMPDEST POP PUSH2 0xB23 DUP2 PUSH2 0x964 JUMP JUMPDEST SWAP1 PUSH2 0xB2D DUP2 PUSH2 0x964 JUMP JUMPDEST SWAP6 PUSH2 0xB37 DUP3 PUSH2 0x9CA JUMP JUMPDEST SWAP6 PUSH2 0xB41 DUP4 PUSH2 0x9CA JUMP JUMPDEST SWAP6 PUSH1 0x0 JUMPDEST DUP5 DUP2 LT PUSH2 0xB57 JUMPI POP POP POP POP POP SWAP4 SWAP3 SWAP2 SWAP1 JUMP JUMPDEST PUSH1 0x1 SWAP1 PUSH1 0x80 PUSH2 0xB95 PUSH2 0xB8F PUSH1 0x40 MLOAD PUSH1 0x20 DUP2 DUP9 MLOAD PUSH2 0xB75 DUP2 DUP4 DUP14 PUSH2 0x745 JUMP JUMPDEST DUP2 ADD PUSH1 0x0 DUP2 MSTORE SUB ADD SWAP1 KECCAK256 PUSH2 0xB89 DUP6 DUP11 PUSH2 0xA14 JUMP JUMPDEST SWAP1 PUSH2 0xA37 JUMP JUMPDEST POP PUSH2 0xA69 JUMP JUMPDEST PUSH1 0xFF PUSH1 0x20 DUP3 ADD MLOAD AND PUSH2 0xBA7 DUP5 DUP12 PUSH2 0xAC6 JUMP JUMPDEST MSTORE DUP13 PUSH2 0xBBF DUP5 DUP7 DUP1 PUSH1 0xA0 SHL SUB PUSH1 0x60 DUP6 ADD MLOAD AND SWAP3 PUSH2 0xAC6 JUMP JUMPDEST MSTORE PUSH1 0x40 DUP2 ADD MLOAD PUSH2 0xBCF DUP5 DUP15 PUSH2 0xAC6 JUMP JUMPDEST MSTORE PUSH2 0xBDA DUP4 DUP14 PUSH2 0xAC6 JUMP JUMPDEST POP ADD MLOAD PUSH2 0xBE7 DUP3 DUP12 PUSH2 0xAC6 JUMP JUMPDEST MSTORE PUSH2 0xBF2 DUP2 DUP11 PUSH2 0xAC6 JUMP JUMPDEST POP ADD PUSH2 0xB45 JUMP JUMPDEST DUP6 DUP2 SUB SWAP2 POP DUP2 GT PUSH2 0xA21 JUMPI CODESIZE PUSH2 0xB19 JUMP JUMPDEST POP POP SWAP3 POP POP POP PUSH1 0x20 SWAP1 PUSH1 0x40 MLOAD PUSH2 0xC20 DUP4 DUP3 PUSH2 0x7F5 JUMP JUMPDEST PUSH1 0x0 DUP2 MSTORE PUSH1 0x0 CALLDATASIZE DUP2 CALLDATACOPY PUSH1 0x40 MLOAD SWAP3 PUSH2 0xC37 DUP2 DUP6 PUSH2 0x7F5 JUMP JUMPDEST PUSH1 0x0 DUP5 MSTORE POP PUSH1 0x0 CALLDATASIZE DUP2 CALLDATACOPY PUSH2 0xC49 PUSH2 0x996 JUMP JUMPDEST SWAP2 PUSH2 0xC52 PUSH2 0x996 JUMP JUMPDEST SWAP2 SWAP4 SWAP3 SWAP2 SWAP1 JUMP JUMPDEST PUSH1 0x0 NOT DUP2 EQ PUSH2 0xA21 JUMPI PUSH1 0x1 ADD SWAP1 JUMP JUMPDEST PUSH1 0x1 SLOAD DUP2 LT ISZERO PUSH2 0xA53 JUMPI PUSH1 0x1 PUSH1 0x0 MSTORE PUSH1 0x20 PUSH1 0x0 KECCAK256 ADD SWAP1 PUSH1 0x0 SWAP1 JUMP JUMPDEST SWAP2 SWAP1 SWAP2 DUP3 MLOAD PUSH8 0xFFFFFFFFFFFFFFFF DUP2 GT PUSH2 0x2E5 JUMPI PUSH2 0xCA1 DUP3 SLOAD PUSH2 0x886 JUMP JUMPDEST PUSH1 0x1F DUP2 GT PUSH2 0xD47 JUMPI JUMPDEST POP PUSH1 0x20 PUSH1 0x1F DUP3 GT PUSH1 0x1 EQ PUSH2 0xCE5 JUMPI DUP2 SWAP3 SWAP4 SWAP5 PUSH1 0x0 SWAP3 PUSH2 0xCDA JUMPI JUMPDEST POP POP DUP2 PUSH1 0x1 SHL SWAP2 PUSH1 0x0 NOT SWAP1 PUSH1 0x3 SHL SHR NOT AND OR SWAP1 SSTORE JUMP JUMPDEST ADD MLOAD SWAP1 POP CODESIZE DUP1 PUSH2 0xCC4 JUMP JUMPDEST PUSH1 0x1F NOT DUP3 AND SWAP1 DUP4 PUSH1 0x0 MSTORE DUP1 PUSH1 0x0 KECCAK256 SWAP2 PUSH1 0x0 JUMPDEST DUP2 DUP2 LT PUSH2 0xD2F JUMPI POP SWAP6 DUP4 PUSH1 0x1 SWAP6 SWAP7 SWAP8 LT PUSH2 0xD16 JUMPI JUMPDEST POP POP POP DUP2 SHL ADD SWAP1 SSTORE JUMP JUMPDEST ADD MLOAD PUSH1 0x0 NOT PUSH1 0xF8 DUP5 PUSH1 0x3 SHL AND SHR NOT AND SWAP1 SSTORE CODESIZE DUP1 DUP1 PUSH2 0xD0C JUMP JUMPDEST SWAP2 SWAP3 PUSH1 0x20 PUSH1 0x1 DUP2 SWAP3 DUP7 DUP12 ADD MLOAD DUP2 SSTORE ADD SWAP5 ADD SWAP3 ADD PUSH2 0xCF7 JUMP JUMPDEST DUP3 PUSH1 0x0 MSTORE PUSH1 0x20 PUSH1 0x0 KECCAK256 PUSH1 0x1F DUP4 ADD PUSH1 0x5 SHR DUP2 ADD SWAP2 PUSH1 0x20 DUP5 LT PUSH2 0xD85 JUMPI JUMPDEST PUSH1 0x1F ADD PUSH1 0x5 SHR ADD SWAP1 JUMPDEST DUP2 DUP2 LT PUSH2 0xD79 JUMPI POP PUSH2 0xCAA JUMP JUMPDEST PUSH1 0x0 DUP2 SSTORE PUSH1 0x1 ADD PUSH2 0xD6C JUMP JUMPDEST SWAP1 SWAP2 POP DUP2 SWAP1 PUSH2 0xD63 JUMP JUMPDEST PUSH2 0xDA7 SWAP1 PUSH1 0x20 PUSH1 0x40 MLOAD SWAP3 DUP3 DUP5 DUP1 SWAP5 MLOAD SWAP4 DUP5 SWAP3 ADD PUSH2 0x745 JUMP JUMPDEST DUP2 ADD SUB SWAP1 KECCAK256 SWAP1 JUMP INVALID LOG2 PUSH5 0x6970667358 0x22 SLT KECCAK256 PUSH18 0x3A6F88473D2445EEFFC9707195C17777D3F9 PUSH31 0x117190F6F3754465086B23F064736F6C634300081C00330000000000000000 "},"methodIdentifiers":{"castVote(string,uint8,string,address,string)":"bc98894e","getAllCampaignIds()":"04182496","getCampaignSummary()":"a00c96d7","getVoteCount(string)":"069953a7","getVoteCounts(string)":"6d3a4ff7","getVotesForCampaign(string,uint256,uint256)":"24076f1d"}}}}}