{"src/contracts/PayoutDistributor.sol":{"PayoutDistributor":{"abi":[{"inputs":[{"internalType":"address","name":"_wallet1","type":"address"},{"internalType":"address","name":"_wallet2","type":"address"},{"internalType":"address","name":"_wallet3","type":"address"}],"stateMutability":"nonpayable","type":"constructor"},{"anonymous":false,"inputs":[{"indexed":true,"internalType":"uint256","name":"campaignId","type":"uint256"},{"indexed":false,"internalType":"uint256","name":"totalAmount","type":"uint256"},{"indexed":false,"internalType":"uint256","name":"pct1","type":"uint256"},{"indexed":false,"internalType":"uint256","name":"pct2","type":"uint256"},{"indexed":false,"internalType":"uint256","name":"pct3","type":"uint256"}],"name":"PayoutDistributed","type":"event"},{"anonymous":false,"inputs":[{"indexed":false,"internalType":"address","name":"wallet1","type":"address"},{"indexed":false,"internalType":"address","name":"wallet2","type":"address"},{"indexed":false,"internalType":"address","name":"wallet3","type":"address"}],"name":"WalletsUpdated","type":"event"},{"inputs":[{"internalType":"uint256","name":"campaignId","type":"uint256"},{"internalType":"uint256","name":"pct1","type":"uint256"},{"internalType":"uint256","name":"pct2","type":"uint256"},{"internalType":"uint256","name":"pct3","type":"uint256"}],"name":"distribute","outputs":[],"stateMutability":"payable","type":"function"},{"inputs":[],"name":"owner","outputs":[{"internalType":"address","name":"","type":"address"}],"stateMutability":"view","type":"function"},{"inputs":[],"name":"projectWallet1","outputs":[{"internalType":"address","name":"","type":"address"}],"stateMutability":"view","type":"function"},{"inputs":[],"name":"projectWallet2","outputs":[{"internalType":"address","name":"","type":"address"}],"stateMutability":"view","type":"function"},{"inputs":[],"name":"projectWallet3","outputs":[{"internalType":"address","name":"","type":"address"}],"stateMutability":"view","type":"function"},{"inputs":[{"internalType":"address","name":"_wallet1","type":"address"},{"internalType":"address","name":"_wallet2","type":"address"},{"internalType":"address","name":"_wallet3","type":"address"}],"name":"setWallets","outputs":[],"stateMutability":"nonpayable","type":"function"},{"stateMutability":"payable","type":"receive"}],"evm":{"bytecode":{"linkReferences":{},"object":"6080346101ab57601f6108b038819003918201601f19168301916001600160401b038311848410176101b0578084926060946040528339810103126101ab57610047816101c6565b61005f6040610058602085016101c6565b93016101c6565b6001600160a01b03909116918215610166576001600160a01b0316908115610121576001600160a01b03169182156100dc57600080546001600160a01b031990811633179091556001805482169290921790915560028054821692909217909155600380549091169190911790556040516106d590816101db8239f35b60405162461bcd60e51b815260206004820152601f60248201527f57616c6c657420332063616e6e6f74206265207a65726f2061646472657373006044820152606490fd5b60405162461bcd60e51b815260206004820152601f60248201527f57616c6c657420322063616e6e6f74206265207a65726f2061646472657373006044820152606490fd5b60405162461bcd60e51b815260206004820152601f60248201527f57616c6c657420312063616e6e6f74206265207a65726f2061646472657373006044820152606490fd5b600080fd5b634e487b7160e01b600052604160045260246000fd5b51906001600160a01b03821682036101ab5756fe6080604052600436101561001b575b361561001957600080fd5b005b60003560e01c806361465a32146102c657806375cb1bd11461010b5780638da5cb5b146100e2578063ae05aba0146100b9578063b1f03871146100905763bba6a3fb0361000e573461008b57600036600319011261008b576003546040516001600160a01b039091168152602090f35b600080fd5b3461008b57600036600319011261008b576001546040516001600160a01b039091168152602090f35b3461008b57600036600319011261008b576002546040516001600160a01b039091168152602090f35b3461008b57600036600319011261008b576000546040516001600160a01b039091168152602090f35b3461008b57606036600319011261008b576004356001600160a01b0381169081900361008b576024356001600160a01b0381169081900361008b576044356001600160a01b038116929083900361008b5761017160018060a01b036000541633146105b7565b801561028157811561023c5782156101f7577f2d4c6aa48812a0ea09474a961613c1a3ae652d39a1580cb1ac46ff277e6d385d92606092826001600160601b0360a01b6001541617600155806001600160601b0360a01b6002541617600255816001600160601b0360a01b600354161760035560405192835260208301526040820152a1005b60405162461bcd60e51b815260206004820152601f60248201527f57616c6c657420332063616e6e6f74206265207a65726f2061646472657373006044820152606490fd5b60405162461bcd60e51b815260206004820152601f60248201527f57616c6c657420322063616e6e6f74206265207a65726f2061646472657373006044820152606490fd5b60405162461bcd60e51b815260206004820152601f60248201527f57616c6c657420312063616e6e6f74206265207a65726f2061646472657373006044820152606490fd5b608036600319011261008b57602435604435606435906102f160018060a01b036000541633146105b7565b341561058157606461030c8361030784876105f4565b6105f4565b0361053c57606461031d8434610617565b04606461032a8334610617565b0460646103378534610617565b04916103508361034b8461034b853461062a565b61062a565b806104fc575b508061048c575b508061041c575b50806103ac575b50604051923484526020840152604083015260608201527f0fc426851f1d7f253b77ab0d6dc4c9a3bcd751fb9a090303dd555f5eb235ef9d608060043592a2005b6003546000918291829182916001600160a01b03165af16103cb610637565b50156103d7578361036b565b60405162461bcd60e51b815260206004820152601b60248201527f5472616e7366657220746f2077616c6c65742033206661696c656400000000006044820152606490fd5b6002546000918291829182916001600160a01b03165af161043b610637565b50156104475784610364565b60405162461bcd60e51b815260206004820152601b60248201527f5472616e7366657220746f2077616c6c65742032206661696c656400000000006044820152606490fd5b6001546000918291829182916001600160a01b03165af16104ab610637565b50156104b7578561035d565b60405162461bcd60e51b815260206004820152601b60248201527f5472616e7366657220746f2077616c6c65742031206661696c656400000000006044820152606490fd5b90928515610516579061050e916105f4565b915b86610356565b9290841561052e5761052891926105f4565b90610510565b610537916105f4565b610510565b60405162461bcd60e51b815260206004820152601b60248201527f50657263656e7461676573206d7573742073756d20746f2031303000000000006044820152606490fd5b60405162461bcd60e51b815260206004820152600e60248201526d26bab9ba1039b2b73210242120a960911b6044820152606490fd5b156105be57565b60405162461bcd60e51b815260206004820152600e60248201526d139bdd08185d5d1a1bdc9a5e995960921b6044820152606490fd5b9190820180921161060157565b634e487b7160e01b600052601160045260246000fd5b8181029291811591840414171561060157565b9190820391821161060157565b3d1561069a573d9067ffffffffffffffff82116106845760405191601f8101601f19908116603f0116830167ffffffffffffffff8111848210176106845760405282523d6000602084013e565b634e487b7160e01b600052604160045260246000fd5b60609056fea26469706673582212207991713d4de2004058bbbc65dd11b3aefa0676d448993e9337bcdaff1eb7ab4664736f6c634300081c0033","opcodes":"PUSH1 0x80 CALLVALUE PUSH2 0x1AB JUMPI PUSH1 0x1F PUSH2 0x8B0 CODESIZE DUP2 SWAP1 SUB SWAP2 DUP3 ADD PUSH1 0x1F NOT AND DUP4 ADD SWAP2 PUSH1 0x1 PUSH1 0x1 PUSH1 0x40 SHL SUB DUP4 GT DUP5 DUP5 LT OR PUSH2 0x1B0 JUMPI DUP1 DUP5 SWAP3 PUSH1 0x60 SWAP5 PUSH1 0x40 MSTORE DUP4 CODECOPY DUP2 ADD SUB SLT PUSH2 0x1AB JUMPI PUSH2 0x47 DUP2 PUSH2 0x1C6 JUMP JUMPDEST PUSH2 0x5F PUSH1 0x40 PUSH2 0x58 PUSH1 0x20 DUP6 ADD PUSH2 0x1C6 JUMP JUMPDEST SWAP4 ADD PUSH2 0x1C6 JUMP JUMPDEST PUSH1 0x1 PUSH1 0x1 PUSH1 0xA0 SHL SUB SWAP1 SWAP2 AND SWAP2 DUP3 ISZERO PUSH2 0x166 JUMPI PUSH1 0x1 PUSH1 0x1 PUSH1 0xA0 SHL SUB AND SWAP1 DUP2 ISZERO PUSH2 0x121 JUMPI PUSH1 0x1 PUSH1 0x1 PUSH1 0xA0 SHL SUB AND SWAP2 DUP3 ISZERO PUSH2 0xDC JUMPI PUSH1 0x0 DUP1 SLOAD PUSH1 0x1 PUSH1 0x1 PUSH1 0xA0 SHL SUB NOT SWAP1 DUP2 AND CALLER OR SWAP1 SWAP2 SSTORE PUSH1 0x1 DUP1 SLOAD DUP3 AND SWAP3 SWAP1 SWAP3 OR SWAP1 SWAP2 SSTORE PUSH1 0x2 DUP1 SLOAD DUP3 AND SWAP3 SWAP1 SWAP3 OR SWAP1 SWAP2 SSTORE PUSH1 0x3 DUP1 SLOAD SWAP1 SWAP2 AND SWAP2 SWAP1 SWAP2 OR SWAP1 SSTORE PUSH1 0x40 MLOAD PUSH2 0x6D5 SWAP1 DUP2 PUSH2 0x1DB DUP3 CODECOPY RETURN JUMPDEST PUSH1 0x40 MLOAD PUSH3 0x461BCD PUSH1 0xE5 SHL DUP2 MSTORE PUSH1 0x20 PUSH1 0x4 DUP3 ADD MSTORE PUSH1 0x1F PUSH1 0x24 DUP3 ADD MSTORE PUSH32 0x57616C6C657420332063616E6E6F74206265207A65726F206164647265737300 PUSH1 0x44 DUP3 ADD MSTORE PUSH1 0x64 SWAP1 REVERT JUMPDEST PUSH1 0x40 MLOAD PUSH3 0x461BCD PUSH1 0xE5 SHL DUP2 MSTORE PUSH1 0x20 PUSH1 0x4 DUP3 ADD MSTORE PUSH1 0x1F PUSH1 0x24 DUP3 ADD MSTORE PUSH32 0x57616C6C657420322063616E6E6F74206265207A65726F206164647265737300 PUSH1 0x44 DUP3 ADD MSTORE PUSH1 0x64 SWAP1 REVERT JUMPDEST PUSH1 0x40 MLOAD PUSH3 0x461BCD PUSH1 0xE5 SHL DUP2 MSTORE PUSH1 0x20 PUSH1 0x4 DUP3 ADD MSTORE PUSH1 0x1F PUSH1 0x24 DUP3 ADD MSTORE PUSH32 0x57616C6C657420312063616E6E6F74206265207A65726F206164647265737300 PUSH1 0x44 DUP3 ADD MSTORE PUSH1 0x64 SWAP1 REVERT JUMPDEST PUSH1 0x0 DUP1 REVERT JUMPDEST PUSH4 0x4E487B71 PUSH1 0xE0 SHL PUSH1 0x0 MSTORE PUSH1 0x41 PUSH1 0x4 MSTORE PUSH1 0x24 PUSH1 0x0 REVERT JUMPDEST MLOAD SWAP1 PUSH1 0x1 PUSH1 0x1 PUSH1 0xA0 SHL SUB DUP3 AND DUP3 SUB PUSH2 0x1AB JUMPI JUMP INVALID PUSH1 0x80 PUSH1 0x40 MSTORE PUSH1 0x4 CALLDATASIZE LT ISZERO PUSH2 0x1B JUMPI JUMPDEST CALLDATASIZE ISZERO PUSH2 0x19 JUMPI PUSH1 0x0 DUP1 REVERT JUMPDEST STOP JUMPDEST PUSH1 0x0 CALLDATALOAD PUSH1 0xE0 SHR DUP1 PUSH4 0x61465A32 EQ PUSH2 0x2C6 JUMPI DUP1 PUSH4 0x75CB1BD1 EQ PUSH2 0x10B JUMPI DUP1 PUSH4 0x8DA5CB5B EQ PUSH2 0xE2 JUMPI DUP1 PUSH4 0xAE05ABA0 EQ PUSH2 0xB9 JUMPI DUP1 PUSH4 0xB1F03871 EQ PUSH2 0x90 JUMPI PUSH4 0xBBA6A3FB SUB PUSH2 0xE JUMPI CALLVALUE PUSH2 0x8B JUMPI PUSH1 0x0 CALLDATASIZE PUSH1 0x3 NOT ADD SLT PUSH2 0x8B JUMPI PUSH1 0x3 SLOAD PUSH1 0x40 MLOAD PUSH1 0x1 PUSH1 0x1 PUSH1 0xA0 SHL SUB SWAP1 SWAP2 AND DUP2 MSTORE PUSH1 0x20 SWAP1 RETURN JUMPDEST PUSH1 0x0 DUP1 REVERT JUMPDEST CALLVALUE PUSH2 0x8B JUMPI PUSH1 0x0 CALLDATASIZE PUSH1 0x3 NOT ADD SLT PUSH2 0x8B JUMPI PUSH1 0x1 SLOAD PUSH1 0x40 MLOAD PUSH1 0x1 PUSH1 0x1 PUSH1 0xA0 SHL SUB SWAP1 SWAP2 AND DUP2 MSTORE PUSH1 0x20 SWAP1 RETURN JUMPDEST CALLVALUE PUSH2 0x8B JUMPI PUSH1 0x0 CALLDATASIZE PUSH1 0x3 NOT ADD SLT PUSH2 0x8B JUMPI PUSH1 0x2 SLOAD PUSH1 0x40 MLOAD PUSH1 0x1 PUSH1 0x1 PUSH1 0xA0 SHL SUB SWAP1 SWAP2 AND DUP2 MSTORE PUSH1 0x20 SWAP1 RETURN JUMPDEST CALLVALUE PUSH2 0x8B JUMPI PUSH1 0x0 CALLDATASIZE PUSH1 0x3 NOT ADD SLT PUSH2 0x8B JUMPI PUSH1 0x0 SLOAD PUSH1 0x40 MLOAD PUSH1 0x1 PUSH1 0x1 PUSH1 0xA0 SHL SUB SWAP1 SWAP2 AND DUP2 MSTORE PUSH1 0x20 SWAP1 RETURN JUMPDEST CALLVALUE PUSH2 0x8B JUMPI PUSH1 0x60 CALLDATASIZE PUSH1 0x3 NOT ADD SLT PUSH2 0x8B JUMPI PUSH1 0x4 CALLDATALOAD PUSH1 0x1 PUSH1 0x1 PUSH1 0xA0 SHL SUB DUP2 AND SWAP1 DUP2 SWAP1 SUB PUSH2 0x8B JUMPI PUSH1 0x24 CALLDATALOAD PUSH1 0x1 PUSH1 0x1 PUSH1 0xA0 SHL SUB DUP2 AND SWAP1 DUP2 SWAP1 SUB PUSH2 0x8B JUMPI PUSH1 0x44 CALLDATALOAD PUSH1 0x1 PUSH1 0x1 PUSH1 0xA0 SHL SUB DUP2 AND SWAP3 SWAP1 DUP4 SWAP1 SUB PUSH2 0x8B JUMPI PUSH2 0x171 PUSH1 0x1 DUP1 PUSH1 0xA0 SHL SUB PUSH1 0x0 SLOAD AND CALLER EQ PUSH2 0x5B7 JUMP JUMPDEST DUP1 ISZERO PUSH2 0x281 JUMPI DUP2 ISZERO PUSH2 0x23C JUMPI DUP3 ISZERO PUSH2 0x1F7 JUMPI PUSH32 0x2D4C6AA48812A0EA09474A961613C1A3AE652D39A1580CB1AC46FF277E6D385D SWAP3 PUSH1 0x60 SWAP3 DUP3 PUSH1 0x1 PUSH1 0x1 PUSH1 0x60 SHL SUB PUSH1 0xA0 SHL PUSH1 0x1 SLOAD AND OR PUSH1 0x1 SSTORE DUP1 PUSH1 0x1 PUSH1 0x1 PUSH1 0x60 SHL SUB PUSH1 0xA0 SHL PUSH1 0x2 SLOAD AND OR PUSH1 0x2 SSTORE DUP2 PUSH1 0x1 PUSH1 0x1 PUSH1 0x60 SHL SUB PUSH1 0xA0 SHL PUSH1 0x3 SLOAD AND OR PUSH1 0x3 SSTORE PUSH1 0x40 MLOAD SWAP3 DUP4 MSTORE PUSH1 0x20 DUP4 ADD MSTORE PUSH1 0x40 DUP3 ADD MSTORE LOG1 STOP JUMPDEST PUSH1 0x40 MLOAD PUSH3 0x461BCD PUSH1 0xE5 SHL DUP2 MSTORE PUSH1 0x20 PUSH1 0x4 DUP3 ADD MSTORE PUSH1 0x1F PUSH1 0x24 DUP3 ADD MSTORE PUSH32 0x57616C6C657420332063616E6E6F74206265207A65726F206164647265737300 PUSH1 0x44 DUP3 ADD MSTORE PUSH1 0x64 SWAP1 REVERT JUMPDEST PUSH1 0x40 MLOAD PUSH3 0x461BCD PUSH1 0xE5 SHL DUP2 MSTORE PUSH1 0x20 PUSH1 0x4 DUP3 ADD MSTORE PUSH1 0x1F PUSH1 0x24 DUP3 ADD MSTORE PUSH32 0x57616C6C657420322063616E6E6F74206265207A65726F206164647265737300 PUSH1 0x44 DUP3 ADD MSTORE PUSH1 0x64 SWAP1 REVERT JUMPDEST PUSH1 0x40 MLOAD PUSH3 0x461BCD PUSH1 0xE5 SHL DUP2 MSTORE PUSH1 0x20 PUSH1 0x4 DUP3 ADD MSTORE PUSH1 0x1F PUSH1 0x24 DUP3 ADD MSTORE PUSH32 0x57616C6C657420312063616E6E6F74206265207A65726F206164647265737300 PUSH1 0x44 DUP3 ADD MSTORE PUSH1 0x64 SWAP1 REVERT JUMPDEST PUSH1 0x80 CALLDATASIZE PUSH1 0x3 NOT ADD SLT PUSH2 0x8B JUMPI PUSH1 0x24 CALLDATALOAD PUSH1 0x44 CALLDATALOAD PUSH1 0x64 CALLDATALOAD SWAP1 PUSH2 0x2F1 PUSH1 0x1 DUP1 PUSH1 0xA0 SHL SUB PUSH1 0x0 SLOAD AND CALLER EQ PUSH2 0x5B7 JUMP JUMPDEST CALLVALUE ISZERO PUSH2 0x581 JUMPI PUSH1 0x64 PUSH2 0x30C DUP4 PUSH2 0x307 DUP5 DUP8 PUSH2 0x5F4 JUMP JUMPDEST PUSH2 0x5F4 JUMP JUMPDEST SUB PUSH2 0x53C JUMPI PUSH1 0x64 PUSH2 0x31D DUP5 CALLVALUE PUSH2 0x617 JUMP JUMPDEST DIV PUSH1 0x64 PUSH2 0x32A DUP4 CALLVALUE PUSH2 0x617 JUMP JUMPDEST DIV PUSH1 0x64 PUSH2 0x337 DUP6 CALLVALUE PUSH2 0x617 JUMP JUMPDEST DIV SWAP2 PUSH2 0x350 DUP4 PUSH2 0x34B DUP5 PUSH2 0x34B DUP6 CALLVALUE PUSH2 0x62A JUMP JUMPDEST PUSH2 0x62A JUMP JUMPDEST DUP1 PUSH2 0x4FC JUMPI JUMPDEST POP DUP1 PUSH2 0x48C JUMPI JUMPDEST POP DUP1 PUSH2 0x41C JUMPI JUMPDEST POP DUP1 PUSH2 0x3AC JUMPI JUMPDEST POP PUSH1 0x40 MLOAD SWAP3 CALLVALUE DUP5 MSTORE PUSH1 0x20 DUP5 ADD MSTORE PUSH1 0x40 DUP4 ADD MSTORE PUSH1 0x60 DUP3 ADD MSTORE PUSH32 0xFC426851F1D7F253B77AB0D6DC4C9A3BCD751FB9A090303DD555F5EB235EF9D PUSH1 0x80 PUSH1 0x4 CALLDATALOAD SWAP3 LOG2 STOP JUMPDEST PUSH1 0x3 SLOAD PUSH1 0x0 SWAP2 DUP3 SWAP2 DUP3 SWAP2 DUP3 SWAP2 PUSH1 0x1 PUSH1 0x1 PUSH1 0xA0 SHL SUB AND GAS CALL PUSH2 0x3CB PUSH2 0x637 JUMP JUMPDEST POP ISZERO PUSH2 0x3D7 JUMPI DUP4 PUSH2 0x36B JUMP JUMPDEST PUSH1 0x40 MLOAD PUSH3 0x461BCD PUSH1 0xE5 SHL DUP2 MSTORE PUSH1 0x20 PUSH1 0x4 DUP3 ADD MSTORE PUSH1 0x1B PUSH1 0x24 DUP3 ADD MSTORE PUSH32 0x5472616E7366657220746F2077616C6C65742033206661696C65640000000000 PUSH1 0x44 DUP3 ADD MSTORE PUSH1 0x64 SWAP1 REVERT JUMPDEST PUSH1 0x2 SLOAD PUSH1 0x0 SWAP2 DUP3 SWAP2 DUP3 SWAP2 DUP3 SWAP2 PUSH1 0x1 PUSH1 0x1 PUSH1 0xA0 SHL SUB AND GAS CALL PUSH2 0x43B PUSH2 0x637 JUMP JUMPDEST POP ISZERO PUSH2 0x447 JUMPI DUP5 PUSH2 0x364 JUMP JUMPDEST PUSH1 0x40 MLOAD PUSH3 0x461BCD PUSH1 0xE5 SHL DUP2 MSTORE PUSH1 0x20 PUSH1 0x4 DUP3 ADD MSTORE PUSH1 0x1B PUSH1 0x24 DUP3 ADD MSTORE PUSH32 0x5472616E7366657220746F2077616C6C65742032206661696C65640000000000 PUSH1 0x44 DUP3 ADD MSTORE PUSH1 0x64 SWAP1 REVERT JUMPDEST PUSH1 0x1 SLOAD PUSH1 0x0 SWAP2 DUP3 SWAP2 DUP3 SWAP2 DUP3 SWAP2 PUSH1 0x1 PUSH1 0x1 PUSH1 0xA0 SHL SUB AND GAS CALL PUSH2 0x4AB PUSH2 0x637 JUMP JUMPDEST POP ISZERO PUSH2 0x4B7 JUMPI DUP6 PUSH2 0x35D JUMP JUMPDEST PUSH1 0x40 MLOAD PUSH3 0x461BCD PUSH1 0xE5 SHL DUP2 MSTORE PUSH1 0x20 PUSH1 0x4 DUP3 ADD MSTORE PUSH1 0x1B PUSH1 0x24 DUP3 ADD MSTORE PUSH32 0x5472616E7366657220746F2077616C6C65742031206661696C65640000000000 PUSH1 0x44 DUP3 ADD MSTORE PUSH1 0x64 SWAP1 REVERT JUMPDEST SWAP1 SWAP3 DUP6 ISZERO PUSH2 0x516 JUMPI SWAP1 PUSH2 0x50E SWAP2 PUSH2 0x5F4 JUMP JUMPDEST SWAP2 JUMPDEST DUP7 PUSH2 0x356 JUMP JUMPDEST SWAP3 SWAP1 DUP5 ISZERO PUSH2 0x52E JUMPI PUSH2 0x528 SWAP2 SWAP3 PUSH2 0x5F4 JUMP JUMPDEST SWAP1 PUSH2 0x510 JUMP JUMPDEST PUSH2 0x537 SWAP2 PUSH2 0x5F4 JUMP JUMPDEST PUSH2 0x510 JUMP JUMPDEST PUSH1 0x40 MLOAD PUSH3 0x461BCD PUSH1 0xE5 SHL DUP2 MSTORE PUSH1 0x20 PUSH1 0x4 DUP3 ADD MSTORE PUSH1 0x1B PUSH1 0x24 DUP3 ADD MSTORE PUSH32 0x50657263656E7461676573206D7573742073756D20746F203130300000000000 PUSH1 0x44 DUP3 ADD MSTORE PUSH1 0x64 SWAP1 REVERT JUMPDEST PUSH1 0x40 MLOAD PUSH3 0x461BCD PUSH1 0xE5 SHL DUP2 MSTORE PUSH1 0x20 PUSH1 0x4 DUP3 ADD MSTORE PUSH1 0xE PUSH1 0x24 DUP3 ADD MSTORE PUSH14 0x26BAB9BA1039B2B73210242120A9 PUSH1 0x91 SHL PUSH1 0x44 DUP3 ADD MSTORE PUSH1 0x64 SWAP1 REVERT JUMPDEST ISZERO PUSH2 0x5BE JUMPI JUMP JUMPDEST PUSH1 0x40 MLOAD PUSH3 0x461BCD PUSH1 0xE5 SHL DUP2 MSTORE PUSH1 0x20 PUSH1 0x4 DUP3 ADD MSTORE PUSH1 0xE PUSH1 0x24 DUP3 ADD MSTORE PUSH14 0x139BDD08185D5D1A1BDC9A5E9959 PUSH1 0x92 SHL PUSH1 0x44 DUP3 ADD MSTORE PUSH1 0x64 SWAP1 REVERT JUMPDEST SWAP2 SWAP1 DUP3 ADD DUP1 SWAP3 GT PUSH2 0x601 JUMPI JUMP JUMPDEST PUSH4 0x4E487B71 PUSH1 0xE0 SHL PUSH1 0x0 MSTORE PUSH1 0x11 PUSH1 0x4 MSTORE PUSH1 0x24 PUSH1 0x0 REVERT JUMPDEST DUP2 DUP2 MUL SWAP3 SWAP2 DUP2 ISZERO SWAP2 DUP5 DIV EQ OR ISZERO PUSH2 0x601 JUMPI JUMP JUMPDEST SWAP2 SWAP1 DUP3 SUB SWAP2 DUP3 GT PUSH2 0x601 JUMPI JUMP JUMPDEST RETURNDATASIZE ISZERO PUSH2 0x69A JUMPI RETURNDATASIZE SWAP1 PUSH8 0xFFFFFFFFFFFFFFFF DUP3 GT PUSH2 0x684 JUMPI PUSH1 0x40 MLOAD SWAP2 PUSH1 0x1F DUP2 ADD PUSH1 0x1F NOT SWAP1 DUP2 AND PUSH1 0x3F ADD AND DUP4 ADD PUSH8 0xFFFFFFFFFFFFFFFF DUP2 GT DUP5 DUP3 LT OR PUSH2 0x684 JUMPI PUSH1 0x40 MSTORE DUP3 MSTORE RETURNDATASIZE PUSH1 0x0 PUSH1 0x20 DUP5 ADD RETURNDATACOPY JUMP JUMPDEST PUSH4 0x4E487B71 PUSH1 0xE0 SHL PUSH1 0x0 MSTORE PUSH1 0x41 PUSH1 0x4 MSTORE PUSH1 0x24 PUSH1 0x0 REVERT JUMPDEST PUSH1 0x60 SWAP1 JUMP INVALID LOG2 PUSH5 0x6970667358 0x22 SLT KECCAK256 PUSH26 0x91713D4DE2004058BBBC65DD11B3AEFA0676D448993E9337BCDA SELFDESTRUCT 0x1E 0xB7 0xAB CHAINID PUSH5 0x736F6C6343 STOP ADDMOD SHR STOP CALLER "},"methodIdentifiers":{"distribute(uint256,uint256,uint256,uint256)":"61465a32","owner()":"8da5cb5b","projectWallet1()":"b1f03871","projectWallet2()":"ae05aba0","projectWallet3()":"bba6a3fb","setWallets(address,address,address)":"75cb1bd1"}}}}}