{
  "_format": "hh-sol-artifact-1",
  "contractName": "PayoutDistributor",
  "sourceName": "src/contracts/PayoutDistributor.sol",
  "abi": [
    {
      "inputs": [
        {
          "internalType": "address",
          "name": "_wallet1",
          "type": "address"
        },
        {
          "internalType": "address",
          "name": "_wallet2",
          "type": "address"
        },
        {
          "internalType": "address",
          "name": "_wallet3",
          "type": "address"
        }
      ],
      "stateMutability": "nonpayable",
      "type": "constructor"
    },
    {
      "anonymous": false,
      "inputs": [
        {
          "indexed": true,
          "internalType": "uint256",
          "name": "campaignId",
          "type": "uint256"
        },
        {
          "indexed": false,
          "internalType": "uint256",
          "name": "totalAmount",
          "type": "uint256"
        },
        {
          "indexed": false,
          "internalType": "uint256",
          "name": "pct1",
          "type": "uint256"
        },
        {
          "indexed": false,
          "internalType": "uint256",
          "name": "pct2",
          "type": "uint256"
        },
        {
          "indexed": false,
          "internalType": "uint256",
          "name": "pct3",
          "type": "uint256"
        }
      ],
      "name": "PayoutDistributed",
      "type": "event"
    },
    {
      "anonymous": false,
      "inputs": [
        {
          "indexed": false,
          "internalType": "address",
          "name": "wallet1",
          "type": "address"
        },
        {
          "indexed": false,
          "internalType": "address",
          "name": "wallet2",
          "type": "address"
        },
        {
          "indexed": false,
          "internalType": "address",
          "name": "wallet3",
          "type": "address"
        }
      ],
      "name": "WalletsUpdated",
      "type": "event"
    },
    {
      "inputs": [
        {
          "internalType": "uint256",
          "name": "campaignId",
          "type": "uint256"
        },
        {
          "internalType": "uint256",
          "name": "pct1",
          "type": "uint256"
        },
        {
          "internalType": "uint256",
          "name": "pct2",
          "type": "uint256"
        },
        {
          "internalType": "uint256",
          "name": "pct3",
          "type": "uint256"
        }
      ],
      "name": "distribute",
      "outputs": [],
      "stateMutability": "payable",
      "type": "function"
    },
    {
      "inputs": [],
      "name": "owner",
      "outputs": [
        {
          "internalType": "address",
          "name": "",
          "type": "address"
        }
      ],
      "stateMutability": "view",
      "type": "function"
    },
    {
      "inputs": [],
      "name": "projectWallet1",
      "outputs": [
        {
          "internalType": "address",
          "name": "",
          "type": "address"
        }
      ],
      "stateMutability": "view",
      "type": "function"
    },
    {
      "inputs": [],
      "name": "projectWallet2",
      "outputs": [
        {
          "internalType": "address",
          "name": "",
          "type": "address"
        }
      ],
      "stateMutability": "view",
      "type": "function"
    },
    {
      "inputs": [],
      "name": "projectWallet3",
      "outputs": [
        {
          "internalType": "address",
          "name": "",
          "type": "address"
        }
      ],
      "stateMutability": "view",
      "type": "function"
    },
    {
      "inputs": [
        {
          "internalType": "address",
          "name": "_wallet1",
          "type": "address"
        },
        {
          "internalType": "address",
          "name": "_wallet2",
          "type": "address"
        },
        {
          "internalType": "address",
          "name": "_wallet3",
          "type": "address"
        }
      ],
      "name": "setWallets",
      "outputs": [],
      "stateMutability": "nonpayable",
      "type": "function"
    },
    {
      "stateMutability": "payable",
      "type": "receive"
    }
  ],
  "bytecode": "0x6080346101ab57601f6108b038819003918201601f19168301916001600160401b038311848410176101b0578084926060946040528339810103126101ab57610047816101c6565b61005f6040610058602085016101c6565b93016101c6565b6001600160a01b03909116918215610166576001600160a01b0316908115610121576001600160a01b03169182156100dc57600080546001600160a01b031990811633179091556001805482169290921790915560028054821692909217909155600380549091169190911790556040516106d590816101db8239f35b60405162461bcd60e51b815260206004820152601f60248201527f57616c6c657420332063616e6e6f74206265207a65726f2061646472657373006044820152606490fd5b60405162461bcd60e51b815260206004820152601f60248201527f57616c6c657420322063616e6e6f74206265207a65726f2061646472657373006044820152606490fd5b60405162461bcd60e51b815260206004820152601f60248201527f57616c6c657420312063616e6e6f74206265207a65726f2061646472657373006044820152606490fd5b600080fd5b634e487b7160e01b600052604160045260246000fd5b51906001600160a01b03821682036101ab5756fe6080604052600436101561001b575b361561001957600080fd5b005b60003560e01c806361465a32146102c657806375cb1bd11461010b5780638da5cb5b146100e2578063ae05aba0146100b9578063b1f03871146100905763bba6a3fb0361000e573461008b57600036600319011261008b576003546040516001600160a01b039091168152602090f35b600080fd5b3461008b57600036600319011261008b576001546040516001600160a01b039091168152602090f35b3461008b57600036600319011261008b576002546040516001600160a01b039091168152602090f35b3461008b57600036600319011261008b576000546040516001600160a01b039091168152602090f35b3461008b57606036600319011261008b576004356001600160a01b0381169081900361008b576024356001600160a01b0381169081900361008b576044356001600160a01b038116929083900361008b5761017160018060a01b036000541633146105b7565b801561028157811561023c5782156101f7577f2d4c6aa48812a0ea09474a961613c1a3ae652d39a1580cb1ac46ff277e6d385d92606092826001600160601b0360a01b6001541617600155806001600160601b0360a01b6002541617600255816001600160601b0360a01b600354161760035560405192835260208301526040820152a1005b60405162461bcd60e51b815260206004820152601f60248201527f57616c6c657420332063616e6e6f74206265207a65726f2061646472657373006044820152606490fd5b60405162461bcd60e51b815260206004820152601f60248201527f57616c6c657420322063616e6e6f74206265207a65726f2061646472657373006044820152606490fd5b60405162461bcd60e51b815260206004820152601f60248201527f57616c6c657420312063616e6e6f74206265207a65726f2061646472657373006044820152606490fd5b608036600319011261008b57602435604435606435906102f160018060a01b036000541633146105b7565b341561058157606461030c8361030784876105f4565b6105f4565b0361053c57606461031d8434610617565b04606461032a8334610617565b0460646103378534610617565b04916103508361034b8461034b853461062a565b61062a565b806104fc575b508061048c575b508061041c575b50806103ac575b50604051923484526020840152604083015260608201527f0fc426851f1d7f253b77ab0d6dc4c9a3bcd751fb9a090303dd555f5eb235ef9d608060043592a2005b6003546000918291829182916001600160a01b03165af16103cb610637565b50156103d7578361036b565b60405162461bcd60e51b815260206004820152601b60248201527f5472616e7366657220746f2077616c6c65742033206661696c656400000000006044820152606490fd5b6002546000918291829182916001600160a01b03165af161043b610637565b50156104475784610364565b60405162461bcd60e51b815260206004820152601b60248201527f5472616e7366657220746f2077616c6c65742032206661696c656400000000006044820152606490fd5b6001546000918291829182916001600160a01b03165af16104ab610637565b50156104b7578561035d565b60405162461bcd60e51b815260206004820152601b60248201527f5472616e7366657220746f2077616c6c65742031206661696c656400000000006044820152606490fd5b90928515610516579061050e916105f4565b915b86610356565b9290841561052e5761052891926105f4565b90610510565b610537916105f4565b610510565b60405162461bcd60e51b815260206004820152601b60248201527f50657263656e7461676573206d7573742073756d20746f2031303000000000006044820152606490fd5b60405162461bcd60e51b815260206004820152600e60248201526d26bab9ba1039b2b73210242120a960911b6044820152606490fd5b156105be57565b60405162461bcd60e51b815260206004820152600e60248201526d139bdd08185d5d1a1bdc9a5e995960921b6044820152606490fd5b9190820180921161060157565b634e487b7160e01b600052601160045260246000fd5b8181029291811591840414171561060157565b9190820391821161060157565b3d1561069a573d9067ffffffffffffffff82116106845760405191601f8101601f19908116603f0116830167ffffffffffffffff8111848210176106845760405282523d6000602084013e565b634e487b7160e01b600052604160045260246000fd5b60609056fea26469706673582212207991713d4de2004058bbbc65dd11b3aefa0676d448993e9337bcdaff1eb7ab4664736f6c634300081c0033",
  "linkReferences": {},
  "deployedLinkReferences": {}
}