{
  "_format": "hh-sol-artifact-1",
  "contractName": "VotingStorage",
  "sourceName": "src/contracts/VotingStorage.sol",
  "abi": [
    {
      "anonymous": false,
      "inputs": [
        {
          "indexed": true,
          "internalType": "string",
          "name": "campaignId",
          "type": "string"
        }
      ],
      "name": "CampaignCreated",
      "type": "event"
    },
    {
      "anonymous": false,
      "inputs": [
        {
          "indexed": true,
          "internalType": "string",
          "name": "campaignId",
          "type": "string"
        },
        {
          "indexed": true,
          "internalType": "address",
          "name": "voter",
          "type": "address"
        },
        {
          "indexed": false,
          "internalType": "uint8",
          "name": "voteOption",
          "type": "uint8"
        }
      ],
      "name": "VoteCast",
      "type": "event"
    },
    {
      "inputs": [
        {
          "internalType": "string",
          "name": "_campaignId",
          "type": "string"
        },
        {
          "internalType": "uint8",
          "name": "_voteOption",
          "type": "uint8"
        },
        {
          "internalType": "string",
          "name": "_email",
          "type": "string"
        },
        {
          "internalType": "address",
          "name": "_voterAddress",
          "type": "address"
        },
        {
          "internalType": "string",
          "name": "_additionalData",
          "type": "string"
        }
      ],
      "name": "castVote",
      "outputs": [],
      "stateMutability": "nonpayable",
      "type": "function"
    },
    {
      "inputs": [],
      "name": "getAllCampaignIds",
      "outputs": [
        {
          "internalType": "string[]",
          "name": "",
          "type": "string[]"
        }
      ],
      "stateMutability": "view",
      "type": "function"
    },
    {
      "inputs": [],
      "name": "getCampaignSummary",
      "outputs": [
        {
          "internalType": "string[]",
          "name": "ids",
          "type": "string[]"
        },
        {
          "internalType": "uint256[]",
          "name": "voteCounts",
          "type": "uint256[]"
        }
      ],
      "stateMutability": "view",
      "type": "function"
    },
    {
      "inputs": [
        {
          "internalType": "string",
          "name": "_campaignId",
          "type": "string"
        }
      ],
      "name": "getVoteCount",
      "outputs": [
        {
          "internalType": "uint256",
          "name": "",
          "type": "uint256"
        }
      ],
      "stateMutability": "view",
      "type": "function"
    },
    {
      "inputs": [
        {
          "internalType": "string",
          "name": "_campaignId",
          "type": "string"
        }
      ],
      "name": "getVoteCounts",
      "outputs": [
        {
          "internalType": "uint256",
          "name": "inFavor",
          "type": "uint256"
        },
        {
          "internalType": "uint256",
          "name": "against",
          "type": "uint256"
        }
      ],
      "stateMutability": "view",
      "type": "function"
    },
    {
      "inputs": [
        {
          "internalType": "string",
          "name": "_campaignId",
          "type": "string"
        },
        {
          "internalType": "uint256",
          "name": "_offset",
          "type": "uint256"
        },
        {
          "internalType": "uint256",
          "name": "_limit",
          "type": "uint256"
        }
      ],
      "name": "getVotesForCampaign",
      "outputs": [
        {
          "internalType": "uint8[]",
          "name": "voteOptions",
          "type": "uint8[]"
        },
        {
          "internalType": "address[]",
          "name": "voters",
          "type": "address[]"
        },
        {
          "internalType": "string[]",
          "name": "emails",
          "type": "string[]"
        },
        {
          "internalType": "string[]",
          "name": "additionalData",
          "type": "string[]"
        }
      ],
      "stateMutability": "view",
      "type": "function"
    }
  ],
  "bytecode": "0x60808060405234601557610de5908161001b8239f35b600080fdfe6080604052600436101561001257600080fd5b60003560e01c806304182496146106af578063069953a71461065257806324076f1d1461055d5780636d3a4ff714610458578063a00c96d71461034b5763bc98894e1461005e57600080fd5b346103465760a03660031901126103465760043567ffffffffffffffff81116103465761008f903690600401610817565b6024359060ff82168092036103465760443567ffffffffffffffff8111610346576100be903690600401610817565b6064356001600160a01b0381169291908381036103465760843567ffffffffffffffff8111610346576100f5903690600401610817565b9360018611610301576102fb575033925b60405190610113826107d9565b838252602082019086825260408301938452606083019560018060a01b0316865260808301908152604051958551966020818189019961015481838d610745565b810160008152030190208054600160401b8110156102e55761017b91600182018155610a37565b9490946102cf576101de956004946101976101b3935188610c83565b60ff6001880191511660ff198254161790555160028601610c83565b516003840180546001600160a01b0319166001600160a01b0392909216919091179055519101610c83565b60ff60405160208184516101f3818389610745565b8101600281520301902054161561023d575b61020f9150610d8f565b6040519182527f9e5a0b4c1d9e8f9f7fdabaffae1ca3cc5db95e72d80d155bf45dd72950b037cf60203393a3005b600154600160401b8110156102e55780600161025c9201600155610c68565b9290926102cf576020610287916102768461020f96610c83565b604051809381928651928391610745565b81016002815203019020600160ff198254161790556102a581610d8f565b7f47114a22588e53404a6e9e8510faa484d40bbfba13663d25fe323ddd9ab334ea600080a2610205565b634e487b7160e01b600052600060045260246000fd5b634e487b7160e01b600052604160045260246000fd5b92610106565b60405162461bcd60e51b815260206004820152601a60248201527f566f7465206f7074696f6e206d7573742062652030206f7220310000000000006044820152606490fd5b600080fd5b3461034657600036600319011261034657600154610368816109ca565b906103728161086e565b61037f60405191826107f5565b81815261038b8261086e565b602082019290601f190136843760005b8181106103f8576103be8585856020604051948594604086526040860190610768565b9184830382860152519182815201919060005b8181106103df575050500390f35b82518452859450602093840193909201916001016103d1565b8061043c602061041261040c600195610c68565b506108c0565b8061041d858b610ac6565b52610428848a610ac6565b508160405193828580945193849201610745565b81016000815203019020546104518286610ac6565b520161039b565b346103465760203660031901126103465760043567ffffffffffffffff811161034657610489903690600401610817565b60006104a660206000938160405193828580945193849201610745565b8101858152030190209081546104bb8161086e565b926104c960405194856107f5565b81845284526020808520859185015b83831061053f575050505082905b825182101561052f57600160ff60206104ff8587610ac6565b510151160361051c57610513600191610c59565b915b01906104e6565b9092610529600191610c59565b93610515565b6040908482519182526020820152f35b6005602060019261054f85610a69565b8152019201920191906104d8565b346103465760603660031901126103465760043567ffffffffffffffff81116103465761059161059e913690600401610817565b6044359060243590610ada565b90929160405193849360808501608086528151809152602060a0870192019060005b8181106106365750505084810360208601526020808451928381520193019060005b818110610614575050508161060291856106109594036040870152610768565b908382036060850152610768565b0390f35b82516001600160a01b03168552879650602094850194909201916001016105e2565b825160ff168452889750602093840193909201916001016105c0565b346103465760203660031901126103465760043567ffffffffffffffff81116103465761069c602061068981933690600401610817565b8160405193828580945193849201610745565b8101600081520301902054604051908152f35b34610346576000366003190112610346576001546106cc8161086e565b906106da60405192836107f5565b8082526020820160016000527fb10e2d527612073b26eecdfd717e6a320cf44b4afac2b0732d9fcbe2b7fa0cf66000915b838310610728576040516020808252819061061090820188610768565b600160208192610737856108c0565b81520192019201919061070b565b60005b8381106107585750506000910152565b8181015183820152602001610748565b9080602083519182815201916020808360051b8301019401926000915b83831061079457505050505090565b909192939460208080600193601f1986820301875289516107c081518092818552858086019101610745565b601f01601f191601019701959491909101920190610785565b60a0810190811067ffffffffffffffff8211176102e557604052565b90601f8019910116810190811067ffffffffffffffff8211176102e557604052565b81601f820112156103465780359067ffffffffffffffff82116102e5576040519261084c601f8401601f1916602001856107f5565b8284526020838301011161034657816000926020809301838601378301015290565b67ffffffffffffffff81116102e55760051b60200190565b90600182811c921680156108b6575b60208310146108a057565b634e487b7160e01b600052602260045260246000fd5b91607f1691610895565b90604051918260008254926108d484610886565b808452936001811690811561094257506001146108fb575b506108f9925003836107f5565b565b90506000929192526020600020906000915b8183106109265750509060206108f992820101386108ec565b602091935080600191548385890101520191019091849261090d565b9050602092506108f994915060ff191682840152151560051b820101386108ec565b9061096e8261086e565b61097b60405191826107f5565b828152809261098c601f199161086e565b0190602036910137565b604051906109a56020836107f5565b600080835282815b8281106109b957505050565b8060606020809385010152016109ad565b906109d48261086e565b6109e160405191826107f5565b82815280926109f2601f199161086e565b019060005b828110610a0357505050565b8060606020809385010152016109f7565b91908201809211610a2157565b634e487b7160e01b600052601160045260246000fd5b8054821015610a53576000526005602060002091020190600090565b634e487b7160e01b600052603260045260246000fd5b90604051610a76816107d9565b6080610ac160048395610a88816108c0565b855260ff6001820154166020860152610aa3600282016108c0565b604086015260038101546001600160a01b03166060860152016108c0565b910152565b8051821015610a535760209160051b010190565b90926040519282519360208181860196610af581838a610745565b810160008152030190205480861015610c0a5780610b138388610a14565b11610bf9575b50610b2381610964565b90610b2d81610964565b95610b37826109ca565b95610b41836109ca565b9560005b848110610b5757505050505093929190565b6001906080610b95610b8f6040516020818851610b7581838d610745565b81016000815203019020610b89858a610a14565b90610a37565b50610a69565b60ff602082015116610ba7848b610ac6565b528c610bbf84868060a01b0360608501511692610ac6565b526040810151610bcf848e610ac6565b52610bda838d610ac6565b500151610be7828b610ac6565b52610bf2818a610ac6565b5001610b45565b85810391508111610a215738610b19565b505092505050602090604051610c2083826107f5565b60008152600036813760405192610c3781856107f5565b60008452506000368137610c49610996565b91610c52610996565b9193929190565b6000198114610a215760010190565b600154811015610a5357600160005260206000200190600090565b919091825167ffffffffffffffff81116102e557610ca18254610886565b601f8111610d47575b506020601f8211600114610ce55781929394600092610cda575b50508160011b916000199060031b1c1916179055565b015190503880610cc4565b601f1982169083600052806000209160005b818110610d2f57509583600195969710610d16575b505050811b019055565b015160001960f88460031b161c19169055388080610d0c565b9192602060018192868b015181550194019201610cf7565b826000526020600020601f830160051c81019160208410610d85575b601f0160051c01905b818110610d795750610caa565b60008155600101610d6c565b9091508190610d63565b610da790602060405192828480945193849201610745565b81010390209056fea2646970667358221220713a6f88473d2445eeffc9707195c17777d3f97e117190f6f3754465086b23f064736f6c634300081c0033",
  "linkReferences": {},
  "deployedLinkReferences": {}
}